:020000040000FA
:0400000003EF00F01A
:020004000000FA
:0A000600FCEC01F0000EF06F000E9C
:10001000F16FFF0E956E0DEF00F0010E776F000E81
:10002000786F000E796F0B0E806F0A0E816F42ECB5
:1000300001F03DEC01F000EE10F010EE90F0F3EC6A
:1000400001F0F3EC01F0F3EC01F0F3EC01F0F3EC70
:1000500001F0F3EC01F0CFEC01F0F3EC01F0F3EC84
:1000600001F0F3EC01F0CFEC01F0F3EC01F0F3EC74
:1000700001F0F3EC01F0CFEC01F0D8EC01F0CFECA3
:1000800001F0D8EC01F0E1EC01F0F3EC01F0E1EC6F
:1000900001F0F3EC01F0E1EC01F0D8EC01F0E1EC5F
:1000A00001F0D8EC01F0EAEC01F0F3EC01F0EAEC3D
:1000B00001F0F3EC01F0D8EC01F0EAEC01F0D8EC3F
:1000C00001F0EAEC01F0CFEC01F0F3EC01F0CFEC41
:1000D00001F0F3EC01F0CFEC01F0D8EC01F0CFEC43
:1000E00001F0D8EC01F0EAEC01F0E1EC01F0D8EC21
:1000F00001F0CFEC01F0EAEC01F0F3EC01F0E1ECFF
:1001000001F0F3EC01F0D8EC01F0F3EC01F0CFECEE
:1001100001F0F3EC01F0F3EC01F0F3EC01F0F3EC9F
:1001200001F0F3EC01F0F3EC01F0F3EC01F0050E5B
:10013000F15F3DEC01F008508FEC02F0060E616FAC
:1001400000EE10F031EC01F0FCEC00F02DEC01F0D1
:10015000030E082608508FEC02F0612FF7D731EC20
:1001600001F031EC01F083509063E5EC00F0010EFA
:10017000772780517763E8EC00F0EDEC00F08151D7
:100180007863F2EC00F0F7EC00F031EC01F031ECC8
:1001900001F0F0C062F010EE10F020EE11F0DECFB2
:1001A000E6FF622FFCD7F02F0000F1C067F010EEE1
:1001B00090F020EE91F0DECFE6FF672FFCD7F12F15
:1001C000B8D790EC01F00DEF00F0010E775F120050
:1001D0000A0E7727010E785F12000A0E775F010E74
:1001E000782712000A0E7827010E795F12000A0E96
:1001F000785F010E79271200810E8FEC02F0150E48
:100200002CEC02F0C00E8FEC02F0530E2CEC02F03E
:10021000430E2CEC02F04F0E2CEC02F0520E2CECA4
:1002200002F0450E2CEC02F03A0E2CEC02F0795163
:1002300021EC02F0785121EC02F077C00CF0010EB5
:100240000C5C21EC02F03DEC01F008508FEC02F068
:100250001200200E2CEC02F01200EE502CEC02F0FA
:100260001200010E516FFA0E526FFA0E80EC02F07E
:10027000522FFBD7512FF7D71200800E086EC00EF9
:100280000A6E12007FEC01F03DEC01F008508FEC9B
:1002900002F0420E2CEC02F0410E2CEC02F0530E58
:1002A0002CEC02F0530E2CEC02F00A508FEC02F012
:1002B000430E2CEC02F0480E2CEC02F0410E2CEC1C
:1002C00002F04D0E2CEC02F0500E2CEC02F0490E18
:1002D0002CEC02F04F0E2CEC02F04E0E2CEC02F047
:1002E00031EC01F031EC01F031EC01F031EC01F0D6
:1002F00031EC01F031EC01F07FEC01F01200460E20
:10030000656F3DEC01F008508FEC02F029EC01F034
:10031000652FFCD73DEC01F008508FEC02F0120085
:100320007FEC01F0540E2CEC02F04F0E2CEC02F09E
:10033000540E2CEC02F0410E2CEC02F04C0E2CEC86
:1003400002F00A508FEC02F0530E2CEC02F0430E38
:100350002CEC02F04F0E2CEC02F0520E2CEC02F0C2
:10036000450E2CEC02F03A0E2CEC02F0795121EC07
:1003700002F0785121EC02F077C00CF0010E0C5C19
:1003800021EC02F031EC01F031EC01F031EC01F044
:1003900031EC01F031EC01F031EC01F01200410ED2
:1003A000EE6E010EF027FE0EE66E010EF127120032
:1003B000420EEE6E010EF027FD0EE66E010EF127E5
:1003C0001200430EEE6E010EF027FB0EE66E010EDC
:1003D000F1271200440EEE6E010EF027F70EE66EC6
:1003E000010EF1271200200EEE6E010EF027000E16
:0803F000E66E010EF127120078
:0803F8008A6AC00E936E280E04
:1004000079EC02F0300E37EC02F00A0E80EC02F0CC
:10041000280E37EC02F00A0E80EC02F0280E37ECC2
:1004200002F00A0E80EC02F00F0E37EC02F00A0E1A
:1004300080EC02F0010E37EC02F0020E79EC02F0D3
:1004400012000E6E0F0B046E0A0E0460070F260FCB
:10045000042445EC02F012000E6E56EC02F012007D
:10046000056EDE5045EC02F0052EFBD71200046E3F
:1004700004380F0B8A6E8A9867EC02F004500F0B59
:100480008A6E8A9867EC02F01200046E04380F0B33
:100490008A6E8A8867EC02F004500F0B8A6E8A8895
:1004A00067EC02F00A0E80EC02F01200046E0438D1
:1004B0000F0B8A6E8A8867EC02F004500F0B8A6E6D
:1004C0008A8867EC02F00A0E80EC02F0120000004D
:1004D00000000000000000000000000000008A8A08
:1004E00000000000000000000000000000008A9AE8
:1004F0001200036EFA0E80EC02F0032EFBD71200FE
:10050000016E013A0F0E0114026EF00E01168AEC14
:1005100002F01200000E0106025AFDE2120037EC52
:0A05200002F00A0E80EC02F0120057
:06052A00AB8EAC98AC940E
:10053000AC8A6596670EAF6E948C1200006EDE502A
:10054000A5EC02F0002EFBD712009EA8FED7AD6EE0
:02055000120097
:0E05520092802581010EC26E300EC16EF60E33
:0C056000C06E1200C282C2B2FED71200B0
:020000040030CA
:0100000015EA
:0100010013EB
:010002007F7E
:010003007F7D
:01000400F902
:010005008B6F
:010006009168
:01000800FFF8
:01000900C036
:01000A00FFF6
:01000B00E014
:01000C00FFF4
:01000D0040B2
:00000001FF
